:100000002CC100000C9482150C94B3150C94E415CB
:100010000C9415160C9446160C9477160C94A8168E
:100020000C94D9164BC1000049C1000047C1000023
:1000300045C100000C94B61D41C100003FC1000045
:100040003DC100000C944E2739C1000037C10000AB
:100050000C94791E33C1000031C100000C940A17C2
:100060002DC100000C94F5190C942B1A27C1000027
:1000700025C1000023C1000021C100001FC10000F4
:100080000C947B271BC1000019C1000017C10000A0
:100090000C94971A0C94CD1A11C100000FC10000E6
:1000A0000DC100000BC100000C94A82707C100007F
:1000B00005C1000003C1000001C100000C94D52758
:1000C000FDC00000FBC00000F9C000000C94391B0B
:1000D0000C946F1BF3C000000C94DB1B0C94111CE0
:1000E000EDC000001206AE071108130809073A0711
:1000F000D305F305B705F007DF07EC07130813086E
:100100001308A20517181A1809180D1813185118F2
:100110001E18221828182C18301836183A183E18AD
:100120005118441848184C1805A84CCDB2D44EB9F3
:100130003836A9020C50B9918688083CA6AAAA2A8A
:10014000BE000000803F00000A0B02090C0D0E08E3
:100150000703040100000000000000000000000090
:10016000000000000000000000000000000000008F
:10017000000012111000000000000000000000004C
:10018000000000000000000000000000010210203C
:1001900020080810204010204080020102010804BD
:1001A0000201010204081020408080402010080451
:1001B00002018004020180402010080402010804AA
:1001C00002010102040810204080010204081020EE
:1001D0004080050505050705080808080202020217
:1001E0000A0A0808040404040101010101010101D3
:1001F0000303030303030303040707070C0C0C0C9E
:100200000C0C0C0C02020202060606060606060686
:100210000B0B0B0B0B0B0B0B000022002500280017
:100220002B002E00310034000201000005010801FE
:100230000B0100002100240027002A002D003000BF
:10024000330001010000040107010A010200541AF1
:10025000F61A981B3A1CB41C751E11241FBECFEF52
:10026000D1E2DEBFCDBF00E00CBF13E0A0E0B2E002
:10027000E4EFFCE500E00BBF02C007900D92A4394B
:10028000B107D9F727E0A4E9B3E001C01D92A33F6D
:10029000B207E1F712E0CAE5D2E000E006C022971B
:1002A0000109FE010BBF0E940B2DCE34D10780E067
:1002B0000807A9F70E9484290C94782EA1CE8F926A
:1002C0009F92AF92BF92CF92DF92EF92FF92609196
:1002D000C4077091C5078091C6079091C7070E9417
:1002E000082B20918A0230918B0240918C02509110
:1002F0008D020E940A2A9B01AC010E940A2A2BED62
:100300003FE049E450E40E94BC2B209186023091EA
:10031000870240918802509189020E94722A0E94AD
:100320001F2C20917E0230917F02409180025091DB
:1003300081020E94BC2B2091820230918302409165
:100340008402509185020E940A2A6B017C0160930D
:10035000BE077093BF078093C0079093C10720E04A
:1003600030E040E853E40E946E2A87FF0EC020E090
:1003700030E0A901C701B6010E94B82B87FD07C074
:10038000C701B6010E94DA2A03C06FEF01C060E026
:1003900080918E020E94691E6091C4077091C5070A
:1003A0008091C6079091C7076F5F7F4F8F4F9F4F18
:1003B0006093C4077093C5078093C6079093C707DF
:1003C0000E94082B2091860230918702409188027A
:1003D000509189020E946E2A811108C01092C407B0
:1003E0001092C5071092C6071092C70781E090E0EF
:1003F0000E94EB144091DE075091DF076091E00707
:100400007091E10780E090E00E94E7148090EA0795
:100410009090EB07A090EC07B090ED0720E030E063
:1004200040E85FEBC501B4010E946E2A882331F1D8
:10043000C090DE07D090DF07E090E007F090E10782
:10044000A7019601C501B4010E94092A4B015C0174
:1004500020E030E040E054E3C701B6010E94BC2B2D
:100460009B01AC01C501B4010E94B82B181634F0F1
:1004700084E992E09093C9078093C8078091EE07C2
:10048000882331F084E992E09093C9078093C807EC
:100490006091E2077091E3078091E4079091E5078E
:1004A0006F5F7F4F8F4F9F4F6093E2077093E3071B
:1004B0008093E4079093E5070E94062B2091E607BE
:1004C0003091E7074091E8075091E9070E94BC2B63
:1004D0006093DE077093DF078093E0079093E10756
:1004E000FF90EF90DF90CF90BF90AF909F908F9054
:1004F0000895CF93DF9387E2E8ECF7E0DF011D92E8
:100500008A95E9F780E090E0A0E2B1E48093EA0701
:100510009093EB07A093EC07B093ED078AE097ED7B
:10052000A3EABCE38093E6079093E707A093E8076C
:10053000B093E907ECECF7E086EB92ECAFEBB9E3B4
:1005400080839183A283B38380E79BEEA0E9B3EB22
:100550008093D0079093D107A093D207B093D3078D
:1005600083E793EEAAE4B3EB8093D4079093D50787
:10057000A093D607B093D7078EE890E5A4E6BEEB2C
:100580008093D8079093D907A093DA07B093DB073D
:10059000A8EAB3E0B093CB07A093CA0786EA93E03A
:1005A0008D939C9384E193E09093A7038093A6039B
:1005B000ACEDB7E0B093AD03A093AC03F093AB0305
:1005C000E093AA038EED97E09093AF038093AE0380
:1005D0001092BE071092BF071092C0071092C10779
:1005E00086E0E2ECF7E0EF0119928A95E9F7E4E999
:1005F000F3E082E1EF0119928A95E9F7ED93FC931C
:100600008EE090E0918380838EE592E09093970353
:100610008093960382E492E09093990380939803E9
:1006200086E292E090939B0380939A038AE092E0A3
:1006300090939D0380939C0360917A0280918E0237
:100640000E945D1E1092C4071092C5071092C60743
:100650001092C707DF91CF9108950895CF93DF934C
:10066000CDB7DEB72A970FB6F894DEBF0FBECDBF69
:10067000AC01CB0160E070E049835A836B837C83DB
:10068000AA2797FDA095BA2F8D839E83AF83B88745
:100690009E01275F3F4FAE014F5F5F4F68E070E004
:1006A0008091B9039091BA030E94B425811108C0CA
:1006B00081E029853A852830310519F480E001C0B0
:1006C00081E02A960FB6F894DEBF0FBECDBFDF9152
:1006D000CF9108950F931F93CF93DF931F921F9293
:1006E000CDB7DEB78B019E012F5F3F4FAC018091EC
:1006F000B9039091BA030E94B425811108C081E02A
:1007000029813A812017310719F480E001C081E086
:100710000F900F90DF91CF911F910F910895CF937C
:10072000DF93EC011092BD031092BC03AC0160E0BA
:1007300070E0CB010E94FB0EAE0161E070E080E052
:1007400090E00E94FB0E8091B9039091BA03DF9173
:10075000CF910C940326EF92FF920F931F93CF93A8
:10076000DF931F921F92CDB7DEB78C018091B70344
:100770009091B80380179107B4F58091B5039091DB
:10078000B603009731F00E94D02D1092B80310925A
:10079000B703C8010E94382D9093B6038093B50328
:1007A000892B19F4E12CF12C18C01093B803009395
:1007B000B70319C024EB33E0AE014F5F5F4F61E038
:1007C00070E08091B9039091BA030E94F4248111E2
:1007D00007C089819A81E80EF91EE016F10654F3EC
:1007E00080E090E01FC0E12CF12C2091B503309106
:1007F000B603E016F106ACF42E0D3F1DAE014F5FBF
:100800005F4FB8016E197F098091B9039091BA03C7
:100810000E94F4248111E4CF89819A81E80EF91EA7
:10082000E4CFC9010F900F90DF91CF911F910F91ED
:10083000FF90EF9008950F931F93CF93DF93EB01F9
:100840008A010CDF81110AC00115110539F0BE01C2
:10085000C801DF91CF911F910F913CCFDF91CF91D4
:100860001F910F910895CF92DF92EF92FF92CF9355
:10087000DF93CDB7DEB728970FB6F894DEBF0FBE73
:10088000CDBF6B01E12CF12CC982DA82EB82FC82B4
:100890002D833E834F835887AE014F5F5F4F68E0E3
:1008A00070E0C9DF28960FB6F894DEBF0FBECDBF4B
:1008B000DF91CF91FF90EF90DF90CF9008950F934D
:1008C0001F93CF93DF93EC018B010E94F024909350
:1008D000BA038093B903009741F0A801BE010E94BA
:1008E0007224EC01009719F40CC0C7E1D3E08091A9
:1008F000B9039091BA030E94F3241092BA031092A4
:10090000B903CE01DF91CF911F910F91089580918E
:10091000B9039091BA030C94ED246F927F928F9259
:100920009F92AF92BF92CF92DF92EF92FF920F937E
:100930001F93CF93DF9300D000D0CDB7DEB76B010C
:100940007C014A018091BD03882309F441C09401D0
:10095000B701A601CE0101960E948A1389819A816E
:1009600018161906ACF5A12CB12C00E010E0898115
:100970009A81081719075CF76B807C806A0C7B1CD6
:10098000F3016081718182819381A4DE81111EC097
:10099000F30164817581161617062CF48681978100
:1009A00099DE811113C0C801880F991FED81FE8166
:1009B000E80FF91FB701A601808191810E942D0FD8
:1009C0000F5F1F4FF8E0AF0EB11CD1CFC401A7DEFF
:1009D00026960FB6F894DEBF0FBECDBFDF91CF9144
:1009E0001F910F91FF90EF90DF90CF90BF90AF904D
:1009F0009F908F907F906F900895CF93DF93EC013D
:100A0000AC0160E070E0CB0188DFAE0161E070E036
:100A100080E090E0DF91CF9180CFCF938091B903B8
:100A20009091BA030E944E24C82F811109C060E042
:100A300070E0CB0166D561E070E080E090E061D5C8
:100A40008C2FCF9108950F931F9389019A01AB01C9
:100A5000BC018091B9039091BA030E9402261F91B4
:100A60000F9108954F925F926F927F928F929F9213
:100A7000AF92BF92CF92DF92EF92FF920F931F93AC
:100A8000CF93DF93CDB7DEB766970FB6F894DEBF8E
:100A90000FBECDBF4C015B018A018091BD0388234D
:100AA00069F08091BD03882309F4BDC21A821982BE
:100AB000E12CF12C78E0C72ED12C14C06DEB73E043
:100AC0008091B9039091BA030E9450248111ABC266
:100AD000E8CFE20EF31EE114F104D9F088E0E81645
:100AE000F104BCF429E030E02C0F3D1F2E0D3F1D1A
:100AF000AE014F5F5F4FB6016E197F098091B90358
:100B00009091BA030E94F42429813A81882309F341
:100B100088C2121613060CF086C28091BC038111A4
:100B200004C019861A861B861C8689859A85AB8522
:100B3000BC858031910508F076C2FC01EE58FF4F6C
:100B40000C94FB2CD4011696ED91FC9117978081A3
:100B50009181A281B38189839A83AB83BC83AE01E7
:100B60004F5F5F4F64E070E085E190E06CC18D8580
:100B70009E85F1DD009731F42FEF3FEFA90161E091
:100B800070E00EC0FC01C080D180E280F380A5013E
:100B9000C701B6010E94B00EA701960160E070E0A7
:100BA0008DE190E03CC28D859E85D5DD009721F4D6
:100BB0002FEF3FEFA9010FC0DC01CD90DD90ED904C
:100BC000FD90AD0197018601B501C401B0D5A70123
:100BD0009601882319F061E070E002C060E070E0E7
:100BE0008BE190E01CC28D859E85B5DD009721F4D8
:100BF0002FEF3FEFA9010EC0FC01C190D190E19011
:100C0000F190BF01A7019601C40186D7A701960103
:100C1000882319F061E070E002C060E070E08CE1D0
:100C200090E0FDC1D4011496ED91FC911597E08000
:100C3000F180F70102811381A080B18060E1462E2E
:100C4000512C612C712C49825A826B827C8288E003
:100C500090E0A0E0B0E08D839E83AF83B8879E01D3
:100C60002F5E3F4FAE014F5F5F4F68E070E08091B5
:100C7000B9039091BA030E94B425882319F0E12C9E
:100C8000F12CAEC089899A890897C9F7D701CD9010
:100C9000DC90B8E0CB0ED11CCC0CDD1CCC0CDD1CE8
:100CA000C6010E94382D7C01009749F349825A827F
:100CB0006B827C82C601AA2797FDA095BA2F8D83EF
:100CC0009E83AF83B8879E012F5E3F4FAE014F5F7B
:100CD0005F4F68E070E08091B9039091BA030E9481
:100CE000B42581117DC089899A89089709F078C057
:100CF000D4011296ED91FC9113974081518162814C
:100D00007381D7014D935D936D937C9313974481C9
:100D100055816681778114964D935D936D937C9395
:100D20001797408551856285738518964D935D931D
:100D30006D937C931B9784859585A685B785F70170
:100D400084879587A687B787108A118A128A138AA3
:100D500084E090E0A0E0B0E0848B958BA68BB78B0D
:100D60008091910290919202A0E0B0E0808F918FEB
:100D7000A28FB38FC501AA2797FDA095BA2F848FA4
:100D8000958FA68FB78FB801A701405E5F4F20E017
:100D900030E02A153B057CF4DB018D919D91BD016E
:100DA000A0E0B0E0FA0181939193A193B193AF01D8
:100DB0002F5F3F4FEECF9E012F5E3F4FA701B60141
:100DC0008091B9039091BA030E94B425811108C0A3
:100DD00089899A898C159D0519F481E08093BC035B
:100DE000C70166960FB6F894DEBF0FBECDBFDF9188
:100DF000CF911F910F91FF90EF90DF90CF90BF9018
:100E0000AF909F908F907F906F905F904F900C94D9
:100E1000D02D8D859E85AF85B8890097A105B10538
:100E200029F199DC009789F481E090E0A0E0B0E03E
:100E300089839A83AB83BC83AE014F5F5F4F64E0CD
:100E400070E082E190E0F7DCEEC0BC01C401ACD2FE
:100E500019821A821B821C82AE014F5F5F4F64E0D1
:100E600070E082E190E0E7DC8111DDC081E08093F9
:100E7000BB03D9C0D4011496ED91FC911597019054
:100E8000F081E02D008511850115110509F460C080
:100E9000D801ED90FC90C280D38020E030E060E08B
:100EA00070E080E090E08E159F050CF5F801A281BE
:100EB000B381A20FB31F1296ED91FC911397EE0F21
:100EC000FF1FEC0DFD1D0190F081E02D16960D9099
:100ED000BC91A02DEA9FA001EB9F500DFA9F500DF1
:100EE0001124640F751F0196285F3F4FDCCF83E10B
:100EF00090E0B4DB811197C0812C912CA12CB12CF6
:100F0000AE14BF040CF08FC0D8011296ED91FC9185
:100F10001397E80DF91DA281B381AA0FBB1FAC0D79
:100F2000BD1D2D913C9186819781289FB001299FFD
:100F3000700D389F700D112480819181CBDBB8E05A
:100F40008B0E911C81116FC0EFEFAE1ABE0AD8CF85
:100F500060E070E083E190E081DB65C040E050E05C
:100F600060E070E081E190E066DC81115CC0C12C42
:100F7000D12C7601C701B601C1D3809146048823E4
:100F800021F0A501C701B601C8DCA501C701B60162
:100F9000DCD2FFEFCF1ADF0AEF0AFF0A82E0C816A1
:100FA000D104E104F10431F71092BD031092BC03A7
:100FB0008091B9039091BA030E945B2434C081E010
:100FC00090E0909348048093470440E050E060E054
:100FD00070E086E190E037CF81E0D8018C9323C0A8
:100FE0008D859E85B8DB009731F42FEF3FEFA90187
:100FF00061E070E012C0FC012081318142815381A7
:10100000CA01B9012B8B3C8B4D8B5E8BFFD62B8994
:101010003C894D895E8960E070E08EE190E023DCE0
:1010200002C0C5017CDB66960FB6F894DEBF0FBE2A
:10103000CDBFDF91CF911F910F91FF90EF90DF9087
:10104000CF90BF90AF909F908F907F906F905F9068
:101050004F900895CF92DF92EF92FF92CF93DF935C
:10106000EC01C12CD12C7601C701B60147D3AE01EA
:10107000C701B60152DCAE01C701B60166D280914C
:10108000B5039091B603009731F00E94D02D1092D5
:10109000B6031092B5038FEFC81AD80AE80AF80A07
:1010A00082E0C816D104E104F104F1F68091BC039A
:1010B000882359F040E050E060E070E084E190E087
:1010C000BADBC82F1092BC0301C0C0E08091BD0301
:1010D000882341F01092BD0321E030E0309392026A
:1010E000209391028091B9039091BA030E945E24EB
:1010F0008091B9039091BA030E94F3248C2FDF9161
:10110000CF91FF90EF90DF90CF900895CF93DF9332
:10111000EC01AC0160E070E0CB010E940113AE0174
:1011200061E070E080E090E0DF91CF910C940113DA
:1011300060E070E0CB010E94661361E070E080E047
:1011400090E00C946613CF92DF92EF92FF920F9390
:101150001F93CF93DF93EC016A017B0100E010E065
:101160009801A4D601E010E020E030E0B701A6012C
:10117000CE019CD6DF91CF911F910F91FF90EF9000
:10118000DF90CF900895EF92FF920F931F93CF932C
:10119000DF93DC01EA01F90114968D919C9115977A
:1011A00012960D911C911397080F191F28813981F0
:1011B00018964D915C9119974217530728F04D915D
:1011C0005C911197452B59F17801E21AF30A1896B0
:1011D0004D915C911997481B590B4E0D5F1D461799
:1011E0005707B4F1A901460F571F4017510700F1E7
:1011F000F182E082338322836E197F0975836483D1
:10120000161617061CF030E020E002C0382F292FF8
:1012100036832783680F791F7983688317C01896F0
:101220008D919C911997821B930B8617970784F0D9
:10123000718360833383228315821482178216821E
:1012400088819981860F971F9983888380E001C0E8
:1012500081E0DF91CF911F910F91FF90EF90089562
:10126000CF93DF9324E4269FE001279FD00D112424
:10127000C254DC4F8AA99BA9009721F00E94D02D6F
:101280001BAA1AAA8EA99FA9009711F00E94D02D1F
:101290001B8A1A8A1E8A1F8A188E198E1A8E1B8E16
:1012A0001C8E1D8E1E8E1F8E18A219A281E090E04A
:1012B0009BA38AA31DA21CA21EA21FA218A619A648
:1012C0001BA61AA61DA61CA61EA61FA618AA19AA0A
:1012D0001BAA1AAA1DAA1CAA1FAA1EAA19AE18AEDA
:1012E0001AAE1BAE1CAE1DAEFE01FE961082118220
:1012F00012821382CE5BDF4F19821882DF91CF9169
:101300000895CF93DF93FB01DC01CD91DC91AE8199
:10131000BF818081918123E0880F991F2A95E1F791
:1013200012960D90BC91A02DA80FB91F6D917C91C4
:10133000119784859585880F991F0A80DB81C02DC0
:10134000C80FD91F0990D881C02D14968D919C91FA
:101350001597892B19F082E090E002C081E090E0BF
:101360008C9F90018D9F300D9C9F300D11248085A6
:101370009185289FD001299FB00D389FB00D112471
:101380000480F581E02D2E9FC0012F9F900D3E9F80
:10139000900D1124860F971FFA0191838083B383E8
:1013A000A283DF91CF9108952F923F924F925F9247
:1013B0006F927F928F929F92AF92BF92CF92DF9265
:1013C000EF92FF920F931F93CF93DF9300D000D043
:1013D000CDB7DEB7DC011496ED91FC911597019025
:1013E000F081E02D808591859A838983A281B381E4
:1013F000BC83AB83DB018D909D90AD90BD90C12CE3
:10140000D12C7601C814D904EA04FB040CF060C0A6
:1014100014964D905D906D907C90179718964D9115
:101420005D916D917C911B97FD017096FE83ED831C
:101430008D919C91119763E0880F991F6A95E1F750
:10144000E981FA8122813381280F391FF901208037
:1014500031801C96ED91FC911D97EE0FFF1F8B8143
:101460009C81E80FF91F0190F081E02DD9011496BD
:101470008D919C911597892B19F082E090E002C024
:1014800081E090E08E9F90018F9F300D9E9F300DE8
:101490001124249F8001259F100D349F100D1124CD
:1014A000249DC001259D900D349D900D1124A8010F
:1014B0006D817E81820D931D0E945F2EAD81BE8164
:1014C000A00FB11FEFEFCE1ADE0AEE0AFE0A9ACF86
:1014D00026960FB6F894DEBF0FBECDBFDF91CF9139
:1014E0001F910F91FF90EF90DF90CF90BF90AF9042
:1014F0009F908F907F906F905F904F903F902F9034
:101500000895CF93DF9324E4269FF001279FF00DE9
:101510001124E254FC4FDB01A157BD4F3C91332312
:1015200029F0EF0119922A95E9F71C92148215828D
:10153000168217821186108613861286118A108AE7
:1015400017861686DF91CF918BCE2F923F924F92C6
:101550005F926F927F928F929F92AF92BF92CF9243
:10156000DF92EF92FF920F931F93CF93DF9300D000
:101570001F92CDB7DEB76B017C011A0184E48C9D0C
:1015800090018D9D300D112422543C4F3C832B83C0
:10159000F90184819581A681B781892B8A2B8B2BB8
:1015A00009F495C0A12CB12C412C512C3201AB81F6
:1015B000BC8114964D915D916D917C911797189611
:1015C0008D919C91199744165506660677068CF501
:1015D000FC01EA0DFB1D32812381032F122F812C88
:1015E000912C82149304C4F4D801ED91FC913097AE
:1015F00069F0848195812A8339830E94D02DF80176
:10160000808191810E94D02D39812A81FFEF8F1A2C
:101610009F0A0E5F1F4FE5CF832F922F0E94D02D80
:101620002FEF421A520A620A720A34E0A30EB11C6A
:10163000BECF0E94D02DEB81FC8182859385892BC2
:10164000E1F0A12CB12C00E010E0AB81BC811A9636
:101650008D919C911B97021513056CF4FC01EA0D0A
:10166000FB1D848195810E94D02D0F5F1F4FFEE0EE
:10167000AF0EB11CEACF0E94D02DEB81FC81808996
:1016800091890E94D02DAB81BC811E968D919C9139
:101690001F970E94D02DC701B601E2DDC701B60138
:1016A0000F900F900F900F90DF91CF911F910F919E
:1016B000FF90EF90DF90CF90BF90AF909F908F9072
:1016C0007F906F905F904F903F902F901ACF0F9028
:1016D0000F900F900F90DF91CF911F910F91FF907E
:1016E000EF90DF90CF90BF90AF909F908F907F90C2
:1016F0006F905F904F903F902F90089524E4269F25
:10170000F001279FF00D1124E254FC4F8289938948
:101710000497029758F485E090E0938B828B8FEFCB
:101720009FEFDC01828F938FA48FB58F08952F9246
:101730003F924F925F926F927F928F929F92AF9261
:10174000BF92CF92DF92EF92FF920F931F93CF93AE
:10175000DF93CDB7DEB7AA970FB6F894DEBF0FBE02
:10176000CDBF9AA389A31B016A010B8B1C8B2D8B08
:101770003E8B84E42B893C89829F8001839F100DDE
:10178000112402541C4F2B893C894D895E89D80154
:101790002D933D934D935C931397AB016B897C899B
:1017A0008D899E89D2DEF6014191519161917191AD
:1017B0007F01CA01D80114964D935D936D937C937C
:1017C000179764E070E00E941E2DF80191878087D2
:1017D000892B09F46DC118A21F8E1B8E1C8E1D8EC5
:1017E0001E8EF80184819581A681B7812B8D3C8D59
:1017F0004D8D5E8D281739074A075B070CF0D1C065
:10180000D80118960D90BC91A02D2F8D38A1A20F54
:10181000B31FBA8BA98BD7018D919C91880F991F0B
:10182000A9A1BAA1ED91FC91E80FF91F80819181E6
:10183000E989FA8991838083D70114962D913D918E
:101840004D915C9117972BA33CA34DA35EA3B8E0E9
:10185000EB0EF11C62E070E0C1010E941E2DE989CF
:10186000FA8993838283892B09F422C11F8A188EF7
:10187000198E1A8E2F89388D498D5A8D8BA19CA176
:10188000ADA1BEA1281739074A075B070CF018C1A4
:10189000D701CD90DC90CC0CDD1CE989FA89A280BF
:1018A000B380AC0CBD1C68E070E081E090E00E9469
:1018B0001E2DD5018D939C93A989BA891296ED911D
:1018C000FC911397EC0DFD1D808091808114910493
:1018D00009F4EEC0F7014481558166817781CA0120
:1018E000D4014D935D936D937C931397B8E0EB0E09
:1018F000F11C64E070E00E941E2DF4019583848346
:10190000892B09F4D5C0A12CB12C412C512C3201CA
:10191000F40180819181A281B381481659066A063B
:101920007B0694F5D4011496CD90DC901597CA0CE3
:10193000DB1CF701DE01119680E101900D928A9582
:10194000E1F7B0E1EB0EF11CA601BE016F5F7F4F26
:10195000E9A1FAA184819581D4DCD40116968D91F8
:101960009C911797F60122813381820F931F17965E
:101970009C938E931697FFEF4F1A5F0A6F0A7F0AA8
:1019800024E0A20EB11CC4CF2F89388D498D5A8D09
:101990002F5F3F4F4F4F5F4F2F8B388F498F5A8F9D
:1019A00069CF6EE070E0C1010E941E2DD8011B9628
:1019B0009C938E931A97612C712C812C912CA12CC5
:1019C000B12C44244394512C821493040CF050C045
:1019D000F70141915191619171917F01CA01D80143
:1019E0001A96CD90DC901B97C60CD71C57FD60C093
:1019F000F60151824082009791F04FA358A769A742
:101A00007AA70E94382DD60115969C938E93149731
:101A10004FA158A569A57AA5892B21F449C0F601E3
:101A200015821482D60113965C934E9312971496E6
:101A30008D919C91159717969C938E931697199656
:101A40009C938E9318971B961C921E921A9781E076
:101A500090E0452B462B472B11F480E090E0A80E38
:101A6000B91EBFEF8B1A9B0AEEE06E0E711CACCF55
:101A7000D8011D961C921E921C97C501F3E0880F99
:101A8000991FFA95E1F70E94382DF801918B808B10
:101A9000892B71F0C501880F991F0E94382DD8013C
:101AA0001F969C938E931E97892B11F080E01BC08C
:101AB000A1016B897C898D899E8947DD81E013C0F6
:101AC0002B8D3C8D4D8D5E8D2F5F3F4F4F4F5F4F68
:101AD0002B8F3C8F4D8F5E8F2F8D38A12C5F3F4F0A
:101AE00038A32F8F7ECEAA960FB6F894DEBF0FBE16
:101AF000CDBFDF91CF911F910F91FF90EF90DF90BD
:101B0000CF90BF90AF909F908F907F906F905F909D
:101B10004F903F902F9008953F924F925F926F9217
:101B20007F928F929F92AF92BF92CF92DF92EF926D
:101B3000FF920F931F93CF93DF93CDB7DEB76497D8
:101B40000FB6F894DEBF0FBECDBF4C01FB01298B51
:101B50003A8B4B8B5C8B84E4829F8001839F100DBA
:101B6000112400531C4F80819181D80113969C93BE
:101B70008E931297448155816681778114964D9397
:101B80005D936D937C93179740855185628573852E
:101B900018964D935D936D937C931B974485558563
:101BA000668577851C964D935D936D937C931F9707
:101BB00040895189628973895C964D935D936D93D9
:101BC0007C935F977F01B4E1EB0EF11C14161506B0
:101BD0000CF05DC0CA01880F991F880F991F0E94E1
:101BE000382DF80191A380A3892B09F499C0A12C69
:101BF000B12C412C512C320130E1332EB301A20122
:101C00002FEF421A520A620A720AF801848D958DEA
:101C1000A68DB78D481759076A077B0764F5D80169
:101C20009096CD90DC909197CA0CDB1CF701DE01F9
:101C30001196832D01900D928A95E1F7B0E1EB0E9C
:101C4000F11CA601BE016F5F7F4FF4018481958175
:101C500058DBD80192968D919C919397F601228141
:101C60003381820F931F93969C938E939297F4E007
:101C7000AF0EB11CC3CF82A193A10E94382DD80111
:101C800095969C938E939497892B09F449C0F701FC
:101C900080819181A281B381AC01BD014D7F21E0A2
:101CA00030E0452B462B472B11F020E030E0F801C7
:101CB000318B208B0197A109B10921E030E0029717
:101CC000A105B10510F020E030E0D80153963C9317
:101CD0002E935297F70184819581A681B781F801EF
:101CE000848B958BA68BB78B84859585A685B785C8
:101CF000B7FF10C0B095A095909581959F4FAF4FBD
:101D0000BF4F80A791A7A2A7B3A7148615861686F2
:101D100017860DC0F80110A611A612A613A607C0BB
:101D200069897A898B899C899BDA81E001C080E08E
:101D300064960FB6F894DEBF0FBECDBFDF91CF9192
:101D40001F910F91FF90EF90DF90CF90BF90AF90D9
:101D50009F908F907F906F905F904F903F900895ED
:101D6000CF93DF9324E4269FF001279FF00D1124E9
:101D7000E254FC4F1092460415A614A620E030E071
:101D800080E090E0C1E0D0E08417950714F5A285CB
:101D9000B385A20FB31F12966D917C9113971616FF
:101DA00017069CF414966D917C91159717967C9369
:101DB0006E93169719967C936E9318971B961C92A8
:101DC0001E921A971196DC93CE930196225F3F4F95
:101DD000DBCF13A612A611AE10AEDF01DE961D9268
:101DE0001D921D921C92139782E090E0938B828B40
:101DF000DF91CF91089524E4269FF001279FF00DF5
:101E00001124E254FC4F138A128A9FCB24E4269FAC
:101E1000F001279FF00D1124E254FC4F8289938931
:101E200081309105C8F08530910518F0059769F06B
:101E300008958FEF9FEFDC01828F938FA48FB58F72
:101E400085E090E0938B828B08958FEF9FEFDC010C
:101E5000828F938FA48FB58F089524E4249FF0017F
:101E6000259FF00D1124E254FC4F2EE0AC01249F7D
:101E7000C001259F900D11240284F385E02DE80F09
:101E8000F91F81E08093460482859385918780873E
:101E9000408551852681378181E090E042175307C4
:101EA00011F080E090E09183808308952F923F921B
:101EB0004F925F926F927F928F929F92AF92BF925A
:101EC000CF92DF92EF92FF920F931F93CF93DF9306
:101ED000CDB7DEB7C454D1090FB6F894DEBF0FBE3C
:101EE000CDBF98AF8FAB4BA75CA76DA77EA72396FE
:101EF0000CAF1DAF2EAF3FAF239784E421962EADDC
:101F00003FAD2197829F1001839F300C1124C101A6
:101F100082549C4F1C01DC011A960D90BC91A02D9F
:101F20002596BFAFAEAF2597FC01828993890297B2
:101F300009F018C186A597A5A0A9B1A9892B8A2B5C
:101F40008B2B29F484E090E0938B828B0BC1D10121
:101F500084899589EFA9F8ADE817F90709F002C15E
:101F6000D6960D911C91D7971AAE19AE412C512CD3
:101F70003201F10186A597A5A0A9B1A94816590675
:101F80006A067B060CF0D0C0D101D2960D90BC91B0
:101F9000A02DE9ADFAADAE0FBF1FBAABA9AB12963B
:101FA0002D913C9113973CAF2BAF369527953695E5
:101FB00027953EAF2DAFD101D8968D919C91D997A1
:101FC000892B09F495C09696CD90DD90ED90FC900C
:101FD000999718AB0FA7E9A9FAA90190F081E02D14
:101FE000FCABEBAB1EAA1DAAEDA9FEA92DAD3EAD23
:101FF000E217F3070CF07CC0D10192968D919C9171
:102000009397892B79F1EBA9FCA980809180A2801C
:10201000B380A7019601C501B4010E94B82B87FDCA
:102020000CC0A7019601AFA5B8A96D917D918D91C6
:102030009C910E946E2A87FD7CC0A7019601C50174
:10204000B4010E94B82B18166CF4A7019601EFA5F5
:10205000F8A960817181828193810E946E2A882310
:1020600009F467C0D10194968D919C919597892B25
:1020700071F1EBA9FCA980809180A280B380A701B7
:102080009601C501B4010E946E2A87FF0CC0A7010A
:102090009601AFA5B8A96D917D918D919C910E94FB
:1020A000B82B87FF46C0A7019601C501B4010E9465
:1020B0006E2A81110CC0A7019601EFA5F8A96081D5
:1020C0007181828193810E94B82B181694F12DA9F9
:1020D0003EA92F5F3F4F3EAB2DAB8FA598A904962D
:1020E00098AB8FA7ABA9BCA91496BCABABAB7CCF0C
:1020F000A9A9BAA96D917C914BAD5CADC8010E94B4
:102100005F2E8DAD9EAD880F991F880F991F080F08
:10211000191FBFEF4B1A5B0A6B0A7B0AE9ADFAADD8
:102120003496FAAFE9AF25CF81E090E091AF80AF70
:1021300019C0F101868D978DA0A1B1A1892B8A2BA1
:102140008B2B09F03AC284E090E0D10153969C9326
:102150008E935297DE968D919C91DF979B969C93E0
:102160008E939A97D10152968D919C91539782307C
:10217000910589F4DA968D919D910D90BC91A02DD9
:10218000181619061A061B060CF021C2E1E0F0E051
:10219000F8ABEFA705C0049709F019C218AA1FA64B
:1021A0008EE02FA938AD829F5001839FB00C11247F
:1021B00025968EAD9FAD2597A80EB91ED501129616
:1021C0004D915C9113974115510509F400C2169683
:1021D0008D919C9117979AA789A7FE01319684E16A
:1021E000DF011D928A95E9F723968CAD9DADAEADCA
:1021F000BFAD2397898B9A8BAB8BBC8BAFA5B8A94E
:10220000AB2B09F448C04101BEE38B0E911CF401D5
:10221000C080D180E280F380F10182AD93ADA4ADA6
:10222000B5ADC816D906EA06FB06A9F5D501149680
:102230006D917C91159718960D90BC91A02D1496D8
:102240000D911D912D913C911797C8010D8B1E8BFF
:102250002F8B388F08969E8B8D8BF50120853185CD
:10226000280F391F3187208780859185460F571F9A
:10227000841B950B97FD04C0680F791F71876087D9
:10228000F1E0CF1AD108E108F108D401CD92DD9236
:10229000ED92FC9213979E012B5E3F4FAE01475D7E
:1022A0005F4F64E170E0C5010E94C308082F10E091
:1022B0000115110509F06DC18CE090E0A0E0B0E0DF
:1022C0008D839E83AF83B8879E01235E3F4FAE010F
:1022D000475D5F4F64E070E0C5010E94C308082FAE
:1022E00010E00115110509F054C180E190E0A0E073
:1022F000B0E08D839E83AF83B8874D8D5E8DBE0128
:10230000655D7F4F8F8D98A10E945F2E8BA19CA150
:10231000009761F06D8D7E8DEBE2F0E0EC0FFD1F1C
:102320006E0F7F1F49A15AA10E945F2E1DA21EA2FF
:102330001FA218A62FA938AD220F331F3EAB2DAB1D
:10234000CDA0DEA0EFA0F8A4F10184819581A68143
:10235000B781C816D906EA06FB060CF0CBC0D1013E
:102360001896ED91FC911997C601880F991F880F57
:10237000991FE80FF91FA081B1818C91882309F47E
:10238000AFC0833009F4ACC00280F381E02D2DA9E9
:102390003EA9E20FF31F808191819CAB8BAB892B0F
:1023A00009F49EC089859A85AB85BC850196A11DDF
:1023B000B11D89879A87AB87BC879E01235E3F4FFB
:1023C000AE01475D5F4F64E070E0C5010E94C30845
:1023D00090E0009709F0DCC08D819E81AF81B885C7
:1023E0000496A11DB11D8D839E83AF83B8874D8D4B
:1023F0005E8DBE016B5D7F4F8F8D98A10E945F2E19
:102400008BA19CA1009761F06D8D7E8DA5E2B0E05F
:10241000AC0FBD1F6A0F7B1F49A15AA10E945F2EFE
:102420001AAA19AA412C512C3201EBA9FCA98081CE
:102430009181A281B381481659066A067B060CF089
:102440004FC0EBA9FCA98480958029A93AA9820EE6
:10245000931ED40112966D917C9113979E01235E79
:102460003F4FAE01475D5F4FC5010E94C30890E03A
:10247000009709F08DC0F40142815381662757FD12
:102480006095762F8D819E81AF81B885840F951FD1
:10249000A61FB71F8D839E83AF83B887608171812C
:1024A0004D8D5E8D8F8D98A10E945F2E8BA19CA17A
:1024B000009759F0D4016D917C912D8D3E8D620F66
:1024C000731F49A15AA10E945F2EBFEF4B1A5B0AEE
:1024D0006B0A7B0AE9A9FAA93496FAABE9ABA5CF56
:1024E000FFEFCF1ADF0AEF0AFF0ACDA2DEA2EFA2AA
:1024F000F8A626CF89859A85AB85BC85892B8A2B42
:102500008B2B09F446C08AE190E0A0E0B0E089831B
:102510009A83AB83BC832FA938ADC901AA2797FD45
:10252000A095BA2F8D879E87AF87B88B4D895E891E
:10253000BE016F5F7F4F8F89988D0E945F2E8B8DBC
:102540009C8D009761F06D897E89A1E0B0E0AC0FB1
:10255000BD1F6A0F7B1F498D5A8D0E945F2E89A572
:102560009AA5F50197838683118210822FA538A939
:10257000232B69F1F101FE9680819181A281B381C3
:102580000196A11DB11D80839183A283B3831FC0D7
:102590008C018FA598A9892BD1F4012BC1F081E082
:1025A00090E0D1019D969C938E939C9785E090E05E
:1025B00053969C938E9352970AC083E090E0F1016A
:1025C000938B828B81E090E093A782A7CBCDCC5BED
:1025D000DF4F0FB6F894DEBF0FBECDBFDF91CF91B6
:1025E0001F910F91FF90EF90DF90CF90BF90AF9031
:1025F0009F908F907F906F905F904F903F902F9023
:102600000895CF92DF92EF92FF920F931F93CF9393
:10261000DF9324E4269FE001279FD00D1124C254AC
:10262000DC4F2A893B892115310509F446C0213048
:102630003105A9F4CAA4DBA496012F5F3F4F3BA745
:102640002AA7EE24D7FCE094FE2C0A8D1B8D2C8D3E
:102650003D8DC016D106E206F30679F581DB8A8945
:102660009B89039751F54AA55BA5CA0101969BA7D3
:102670008AA7662757FD6095762F8E8D9F8DA8A11E
:10268000B9A1481759076A077B07BCF08EAD9FAD0B
:102690009BA78AA784E090E09B8B8A8B8AAD9BAD39
:1026A000ACADBDAD181619061A061B0634F4CE5B88
:1026B000DF4F81E090E099838883DF91CF911F9174
:1026C0000F91FF90EF90DF90CF90089524E4269F24
:1026D000F001279FF00D1124E254FC4F8289938969
:1026E0000497B9F442A553A54F5F5F4F53A742A784
:1026F000662757FD6095762F86899789A08DB18DC5
:10270000481759076A077B0721F485E090E0938B0F
:10271000828B08952F923F924F925F926F927F9299
:102720008F929F92AF92BF92CF92DF92EF92FF92E1
:102730000F931F93CF93DF9300D01F92CDB7DEB7D7
:1027400049835A836B837C83490124E4249F80015D
:10275000259F100D112402541C4FD80152966D90E4
:102760007C9053979301245031092230310508F0B1
:10277000BCC01D961C921E921C97FC0111821082F7
:1027800013821282A12CB12C20E030E028153905EB
:102790000CF067C0D8011A962D903C901B972A0C1C
:1027A0003B1CF10140815181452B09F054C06085EB
:1027B000718542805380468157811C96ED90FC9034
:1027C0001D976701F3E0CC0CDD1CFA95E1F75096FC
:1027D000ED91FC915197EC0DFD1D6701CC0CDD1CBA
:1027E0001E96ED90FC901F97EC0CFD1CD7012D93CD
:1027F0003C93D8011C96ED90FC901D97BFEFEB1A0F
:10280000FB0AD8011D96FC92EE921C97738362839B
:10281000D1011B965C934E931A976417750748F481
:10282000461B570B518340831582148217821682F0
:1028300012C0D1011496CD90DC9015977601E40C6E
:10284000F51CE61AF70AF182E0824C195D095583FE
:102850004483D782C6822F5F3F4FBEE0AB0EB11CD0
:1028600095CFF80124853585DC0111963C932E9394
:102870004089518913965C934E93129746855785EC
:1028800015965C934E931497232BD1F5B5E06B16F8
:102890007104B1F510924604828D938DA48DB58D8F
:1028A000AE014F5F5F4F64E070E08F3F9F4FAF4FCF
:1028B000BF4F59F480E290E00E941B0469817A8145
:1028C0008B819C81A40197DA1BC08FE190E00E946C
:1028D0001B04D8019B961C921E929A9781E090E06F
:1028E00053969C938E9352970BC0F80115861486CD
:1028F000DC0111961C921E9213961C921E92129746
:102900000F900F900F900F90DF91CF911F910F912B
:10291000FF90EF90DF90CF90BF90AF909F908F90FF
:102920007F906F905F904F903F902F900895EF921F
:10293000FF920F931F93CF93DF937C018B01EA01EA
:102940000E948704811121C080919102909192028E
:10295000049711F183E090E09093920280939102AA
:102960001BC088818111F0CF28ED38EB45E050E0A5
:1029700060E070E0CB010E942305AE01B801C70101
:102980000E943205C8010E94FD0480914704909185
:102990004804892B31F3D8CFDF91CF911F910F914C
:1029A000FF90EF900895CF93DF93EB012091910278
:1029B000309192022430310539F00E943205CE0167
:1029C000DF91CF910C94FD04DF91CF9108950C9489
:1029D000A3080C9498080C9486080C940D050C948C
:1029E0002A08089560E070E080E090E00C945F04B5
:1029F0000895AF92BF92CF92DF92EF92FF920F9322
:102A00001F93CF93DF931F921F92CDB7DEB75C0168
:102A100069017A018B0180E090E0C114D104E104E6
:102A2000F104F1F0C114D10421E0E206F10410F444
:102A3000A60102C04FEF5FEF9E012F5F3F4FB8012D
:102A4000C5010E940E268F3F2FEF920749F0298182
:102A50003A81C21AD30AE108F108020F131FDDCF31
:102A60000F900F90DF91CF911F910F91FF90EF90FA
:102A7000DF90CF90BF90AF900895AF92BF92CF926A
:102A8000DF92EF92FF920F931F93CF93DF931F92EA
:102A90001F92CDB7DEB75C0169017A018B0180E03E
:102AA00090E0C114D104E104F104F1F0C114D104A7
:102AB00021E0E206F10410F4A60102C04FEF5FEF3F
:102AC0009E012F5F3F4FB801C5010E944C268F3FEA
:102AD0002FEF920749F029813A81C21AD30AE108FF
:102AE000F108020F131FDDCF0F900F90DF91CF91F0
:102AF0001F910F91FF90EF90DF90CF90BF90AF901C
:102B0000089508951F920F920FB60F9211240BB6DD
:102B10000F922F933F934F935F936F937F938F9376
:102B20009F93AF93BF93EF93FF9380914D04909148
:102B30004E04892B29F0E0914D04F0914E04199533
:102B4000FF91EF91BF91AF919F918F917F916F9185
:102B50005F914F913F912F910F900BBE0F900FBE41
:102B60000F901F9018951F920F920FB60F9211247D
:102B70000BB60F922F933F934F935F936F937F9377
:102B80008F939F93AF93BF93EF93FF9380914F04E5
:102B900090915004892B29F0E0914F04F09150045A
:102BA0001995FF91EF91BF91AF919F918F917F9177
:102BB0006F915F914F913F912F910F900BBE0F90AE
:102BC0000FBE0F901F9018951F920F920FB60F9285
:102BD00011240BB60F922F933F934F935F936F93F4
:102BE0007F938F939F93AF93BF93EF93FF938091C6
:102BF000510490915204892B29F0E0915104F091F5
:102C000052041995FF91EF91BF91AF919F918F91D0
:102C10007F916F915F914F913F912F910F900BBEDC
:102C20000F900FBE0F901F9018951F920F920FB626
:102C30000F9211240BB60F922F933F934F935F93F4
:102C40006F937F938F939F93AF93BF93EF93FF9374
:102C50008091530490915404892B29F0E0915304FE
:102C6000F09154041995FF91EF91BF91AF919F910D
:102C70008F917F916F915F914F913F912F910F9025
:102C80000BBE0F900FBE0F901F9018951F920F92C2
:102C90000FB60F9211240BB60F922F933F934F93C1
:102CA0005F936F937F938F939F93AF93BF93EF93B4
:102CB000FF938091490490914A04892B29F0E09177
:102CC0004904F0914A041995FF91EF91BF91AF919A
:102CD0009F918F917F916F915F914F913F912F9134
:102CE0000F900BBE0F900FBE0F901F9018951F9264
:102CF0000F920FB60F9211240BB60F922F933F93A2
:102D00004F935F936F937F938F939F93AF93BF93F3
:102D1000EF93FF9380914B0490914C04892B29F001
:102D2000E0914B04F0914C041995FF91EF91BF9104
:102D3000AF919F918F917F916F915F914F913F9153
:102D40002F910F900BBE0F900FBE0F901F901895F4
:102D50001F920F920FB60F9211240BB60F922F9362
:102D60003F934F935F936F937F938F939F93AF9313
:102D7000BF93EF93FF938091550490915604892B54
:102D800029F0E0915504F09156041995FF91EF91C7
:102D9000BF91AF919F918F917F916F915F914F9173
:102DA0003F912F910F900BBE0F900FBE0F901F9071
:102DB00018951F920F920FB60F9211240BB60F9217
:102DC0002F933F934F935F936F937F938F939F9333
:102DD000AF93BF93EF93FF93809157049091580462
:102DE000892B29F0E0915704F09158041995FF912F
:102DF000EF91BF91AF919F918F917F916F915F9173
:102E00004F913F912F910F900BBE0F900FBE0F90DF
:102E10001F9018951F920F920FB60F9211242F93A7
:102E20003F938F939F93AF93BF9380915A04909158
:102E30005B04A0915C04B0915D043091590423E0DF
:102E4000230F2D3720F40196A11DB11D05C026E8E2
:102E5000230F0296A11DB11D2093590480935A049B
:102E600090935B04A0935C04B0935D0480915E0436
:102E700090915F04A0916004B09161040196A11D3E
:102E8000B11D80935E0490935F04A0936004B0939F
:102E90006104BF91AF919F918F913F912F910F90BE
:102EA0000FBE0F901F9018953FB7F89480915E0465
:102EB00090915F04A0916004B091610426B5A89B35
:102EC00005C02F3F19F00196A11DB11D3FBF662718
:102ED000782F892F9A2F620F711D811D911D42E05D
:102EE000660F771F881F991F4A95D1F70895CF92D3
:102EF000DF92EF92FF92CF93DF936B017C01D4DFDF
:102F0000EB01C114D104E104F10479F0FADDCCDF66
:102F10006C1B7D0B683E7340A0F381E0C81AD1089A
:102F2000E108F108C851DC4FECCFDF91CF91FF9061
:102F3000EF90DF90CF900895789484B5826084BD3F
:102F400084B5816084BD85B5826085BD85B58160AD
:102F500085BDEEE6F0E0808181608083E1E8F0E00D
:102F60001082808182608083808181608083E0E83C
:102F7000F0E0808181608083E1EBF0E0808184601B
:102F80008083E0EBF0E0808181608083E1E9F0E024
:102F9000808182608083808181608083E0E9F0E0CD
:102FA000808181608083E1EAF0E0808182608083BB
:102FB000808181608083E0EAF0E0808181608083AD
:102FC000E1E2F1E0808182608083808181608083A2
:102FD000E0E2F1E0808181608083EAE7F0E08081D7
:102FE000846080838081826080838081816080832F
:102FF0008081806880831092C100089590E0FC0178
:103000003197E231F10508F04CC0EE57FF4F0C94B8
:10301000FB2C809180008F7703C0809180008F7D92
:1030200080938000089580918000877FF9CF84B5D8
:103030008F7702C084B58F7D84BD08958091B000E4
:103040008F7703C08091B0008F7D8093B00008958A
:10305000809190008F7707C0809190008F7D03C092
:1030600080919000877F8093900008958091A000C8
:103070008F7707C08091A0008F7D03C08091A00052
:10308000877F8093A0000895809120018F7707C0EB
:10309000809120018F7D03C080912001877F8093E4
:1030A00020010895CF93DF9390E0FC01E457FE4F99
:1030B0002491FC01EE52FE4F8491882349F190E067
:1030C000880F991FFC01EE5CFD4FA591B491885EBD
:1030D0009D4FFC01C591D4919FB7611108C0F89430
:1030E0008C91209582238C93888182230AC0623040
:1030F00051F4F8948C91322F309583238C938881EE
:10310000822B888304C0F8948C91822B8C939FBF70
:10311000DF91CF9108950F931F93CF93DF931F9269
:10312000CDB7DEB7282F30E0F901EA5BFE4F84917E
:10313000F901E457FE4F1491F901EE52FE4F04914C
:103140000023C1F0882319F0698358DF6981E02FDB
:10315000F0E0EE0FFF1FE85EFD4FA591B4919FB721
:10316000F8948C91611103C01095812301C0812BCB
:103170008C939FBF0F90DF91CF911F910F91089576
:10318000FC01818D228D90E0805C9F4F821B910914
:103190008F7399270895FC01918D828D981731F0D6
:1031A000828DE80FF11D858D90E008958FEF9FEFE0
:1031B0000895FC01918D828D981761F0828DDF0159
:1031C000A80FB11D5D968C91928D9F5F9F73928F1A
:1031D00090E008958FEF9FEF0895FC01848DDF014B
:1031E000A80FB11DA35ABF4F2C91848D90E001967A
:1031F0008F739927848FA689B7892C93A089B18969
:103200008C9180648C93938D848D981306C0028872
:10321000F389E02D80818F7D80830895CF93DF93A4
:10322000EC01888D8823C1F0EA89FB89808185FDC6
:1032300005C0A889B9898C9186FD0EC00FB607FC20
:10324000F5CF808185FFF2CFA889B9898C9185FF60
:10325000EDCFCE01C2DFE8CFDF91CF910895CF92BD
:10326000DF92FF920F931F93CF93DF931F92CDB7FF
:10327000DEB76C01DC015B969C915B975C968C9150
:103280005C97981307C05096ED91FC9151978081FF
:1032900085FD31C0F601038D10E00F5F1F4F0F73E6
:1032A0001127F02EF601848DF81210C00FB607FC1E
:1032B000F9CFD6015096ED91FC915197808185FF11
:1032C000F1CFC601698389DF6981ECCF838DE80F77
:1032D000F11DE35AFF4F6083D6015B960C935B9719
:1032E0005296ED91FC91539780818062808381E0BA
:1032F00058968C930DC0D6015696ED91FC91579738
:1033000060835096ED91FC91519780818064808319
:1033100081E090E00F90DF91CF911F910F91FF908E
:10332000DF90CF900895BF92CF92DF92EF92FF92FD
:10333000CF93DF93EC016A017B01B22EE889F98912
:1033400082E08083411581EE580761057105A1F087
:1033500060E079E08DE390E0A70196010E94BD2C2A
:1033600021503109410951095695479537952795BF
:10337000211580E1380798F0E889F989108260E822
:1033800074E88EE190E0A70196010E94BD2C2150C7
:103390003109410951095695479537952795EC858F
:1033A000FD853083EE85FF852083188EEC89FD89AD
:1033B000B082EA89FB89808180618083EA89FB8908
:1033C000808188608083EA89FB898081806880832E
:1033D000EA89FB8980818F7D8083DF91CF91FF9087
:1033E000EF90DF90CF90BF9008951F920F920FB68D
:1033F0000F9211240BB60F922F938F939F93EF93FD
:10340000FF93E0917204F09173048081E09178045D
:10341000F091790482FD12C0908180917B048F5FCE
:103420008F7320917C04821751F0E0917B04F0E0CF
:10343000EE59FB4F958F80937B0401C08081FF91F3
:10344000EF919F918F912F910F900BBE0F900FBE18
:103450000F901F9018951F920F920FB60F92112484
:103460000BB60F922F933F934F935F936F937F937E
:103470008F939F93AF93BF93EF93FF9382E694E074
:10348000ACDEFF91EF91BF91AF919F918F917F91B2
:103490006F915F914F913F912F910F900BBE0F90C5
:1034A0000FBE0F901F90189510926504109264043F
:1034B00088EE93E0A0E0B0E0809366049093670408
:1034C000A0936804B093690486E593E09093630445
:1034D0008093620485EC90E090936F0480936E0477
:1034E00084EC90E0909371048093700480EC90E001
:1034F000909373048093720481EC90E09093750430
:103500008093740482EC90E0909377048093760427
:1035100086EC90E0909379048093780410927B0479
:1035200010927C0410927D0410927E0408951F92E4
:103530000F920FB60F9211240BB60F922F938F9309
:103540009F93EF93FF93E0910F05F0911005808119
:10355000E0911505F091160582FD12C090818091D1
:1035600018058F5F8F7320911905821751F0E09134
:103570001805F0E0E150FB4F958F8093180501C0CE
:103580008081FF91EF919F918F912F910F900BBEB2
:103590000F900FBE0F901F9018951F920F920FB6AD
:1035A0000F9211240BB60F922F933F934F935F937B
:1035B0006F937F938F939F93AF93BF93EF93FF93FB
:1035C0008FEF94E00ADEFF91EF91BF91AF919F9151
:1035D0008F917F916F915F914F913F912F910F90BC
:1035E0000BBE0F900FBE0F901F9018951092020502
:1035F0001092010588EE93E0A0E0B0E0809303050F
:1036000090930405A0930505B093060586E593E025
:10361000909300058093FF048DEC90E090930C054F
:1036200080930B058CEC90E090930E0580930D0534
:1036300088EC90E09093100580930F0589EC90E062
:1036400090931205809311058AEC90E090931405F5
:10365000809313058EEC90E09093160580931505EA
:10366000109218051092190510921A0510921B0558
:1036700008951F920F920FB60F9211240BB60F925E
:103680002F938F939F93EF93FF93E091AC05F0916D
:10369000AD058081E091B205F091B30582FD12C0C5
:1036A00090818091B5058F5F8F732091B605821749
:1036B00051F0E091B505F0E0E456FA4F958F809314
:1036C000B50501C08081FF91EF919F918F912F915E
:1036D0000F900BBE0F900FBE0F901F9018951F926A
:1036E0000F920FB60F9211240BB60F922F933F93A8
:1036F0004F935F936F937F938F939F93AF93BF93FA
:10370000EF93FF938CE995E068DDFF91EF91BF9116
:10371000AF919F918F917F916F915F914F913F9169
:103720002F910F900BBE0F900FBE0F901F9018950A
:1037300010929F0510929E0588EE93E0A0E0B0E005
:103740008093A0059093A105A093A205B093A30533
:1037500086E593E090939D0580939C0585ED90E030
:103760009093A9058093A80584ED90E09093AB0514
:103770008093AA0580ED90E09093AD058093AC0511
:1037800081ED90E09093AF058093AE0582ED90E0DF
:103790009093B1058093B00586ED90E09093B305CA
:1037A0008093B2051092B5051092B6051092B70538
:1037B0001092B80508951F920F920FB60F92112420
:1037C0000BB60F922F938F939F93EF93FF93E091FC
:1037D0004906F0914A068081E0914F06F09150062B
:1037E00082FD12C09081809152068F5F8F7320916D
:1037F0005306821751F0E0915206F0E0E75CF94F72
:10380000958F8093520601C08081FF91EF919F9127
:103810008F912F910F900BBE0F900FBE0F901F90A6
:1038200018951F920F920FB60F9211240BB60F929C
:103830002F933F934F935F936F937F938F939F93B8
:10384000AF93BF93EF93FF9389E396E0C6DCFF91BC
:10385000EF91BF91AF919F918F917F916F915F9108
:103860004F913F912F910F900BBE0F900FBE0F9075
:103870001F90189510923C0610923B0688EE93E03C
:10388000A0E0B0E080933D0690933E06A0933F06F3
:10389000B093400686E593E090933A06809339060C
:1038A00085E391E0909346068093450684E391E09A
:1038B000909348068093470680E391E090934A06F0
:1038C0008093490681E391E090934C0680934B06E8
:1038D00082E391E090934E0680934D0686E391E05B
:1038E0009093500680934F06109252061092530602
:1038F00010925406109255060895AF92BF92CF923F
:10390000DF92EF92FF920F931F93CF93DF936C019F
:103910007B01C0E0D0E000E010E0F601EC0FFD1FFD
:103920004AE050E06281C701D7D05C016EE2C70176
:1039300068D08A0D9B1D080F191F2196C330D10531
:1039400061F74AE050E0F6016581C701C5D0800FFC
:10395000911FDF91CF911F910F91FF90EF90DF901A
:10396000CF90BF90AF90089586E693E09093D706EE
:103970008093D6061092D8061092D9061092DA06D5
:103980001092DB060895CF92DF92EF92FF920F9391
:103990001F93CF93DF936C017A01EB01E60EF71EC4
:1039A00000E010E0CE15DF0561F06991D601ED91E0
:1039B000FC910190F081E02DC6011995080F191FA7
:1039C000F1CFC801DF91CF911F910F91FF90EF9040
:1039D000DF90CF9008956115710581F0DB010D90A6
:1039E0000020E9F7AD0141505109461B570BDC019E
:1039F000ED91FC910280F381E02D199480E090E03C
:103A00000895DC01ED91FC910190F081E02D199475
:103A10008F929F92AF92BF92CF92DF92EF92FF92DE
:103A20000F931F93CF93DF93CDB7DEB7A1970FB658
:103A3000F894DEBF0FBECDBF7C01C42EE52FCB01B5
:103A4000D22E19A221E02D1510F02AE0D22E8E01DF
:103A50000F5D1F4F8D2C912CA12CB12C6C2D7E2F26
:103A6000A50194010E94BD2C8C2DD29E8019112499
:103A7000015011098A3014F4805D01C0895CF8019D
:103A80008083211531054105510521F0C22EE32F18
:103A9000CA01E4CFB801C7019EDFA1960FB6F89422
:103AA000DEBF0FBECDBFDF91CF911F910F91FF9071
:103AB000EF90DF90CF90BF90AF909F908F90089540
:103AC0002115310541F4DC01ED91FC910190F0816B
:103AD000E02D642F19949CCF9A01462F50E060E0AE
:103AE00070E0EECF8230A9F028F4882349F08130CD
:103AF00051F00895843009F1E8F0853009F1089516
:103B000010926E00089580916F008D7F80936F00FA
:103B10000895809170008D7F8093700081E0809384
:103B2000B0008091B100887F84608093B1001092D2
:103B3000B3000895109271000895109272000895D4
:103B4000109273000895CF93C82F809193028C1325
:103B500007C0ECE4F2E084919FEF9093930201C0E0
:103B60008FEFC0DF60E08C2FCF91D5CA1F920F92EC
:103B70000FB60F9211240BB60F922F933F934F93D2
:103B80005F936F937F938F939F93AF93BF93EF93C5
:103B9000FF938091DF069091E006A091E106B0913D
:103BA000E206892B8A2B8B2B51F19091DC06E09158
:103BB000DD06F091DE068081892780838091DF0613
:103BC0009091E006A091E106B091E2061816190660
:103BD0001A061B06BCF48091DF069091E006A091C6
:103BE000E106B091E2060197A109B1098093DF06D1
:103BF0009093E006A093E106B093E20603C08091A3
:103C00009302A1DFFF91EF91BF91AF919F918F91AF
:103C10007F916F915F914F913F912F910F900BBECC
:103C20000F900FBE0F901F9018954F925F926F925A
:103C30007F92AF92BF92CF92DF92EF92FF920F935B
:103C40001F93CF93DF93CDB7DEB729013A01621BF3
:103C5000730B840B950B2A893B894C895D892A1942
:103C60003B094C095D092A8B3B8B4C8B5D8B9B017F
:103C7000AC016A897B898C899D890E94A22CE418F9
:103C8000F50806091709A80197010E94DF2C2A0DE3
:103C90003B1D4C1D5D1DCA01B901DF91CF911F91E4
:103CA0000F91FF90EF90DF90CF90BF90AF907F90FB
:103CB0006F905F904F900895089570E0282F30E046
:103CC000C901880F991F820F931F8D51994F0C9432
:103CD000CC2870E0282F30E0C901880F991F820F8F
:103CE000931F8D51994F0C94042983EE96E00C9408
:103CF00002281F920F920FB60F9211240BB60F924B
:103D00002F933F934F935F936F937F938F939F93E3
:103D1000AF93BF93EF93FF938EE19BEF909385005A
:103D2000809384000E946829FF91EF91BF91AF9129
:103D30009F918F917F916F915F914F913F912F91C3
:103D40000F900BBE0F900FBE0F901F9018958EE135
:103D50009BEF9093850080938400AFE6B0E08C9158
:103D60008E7F8C93E0E8F0E080818C7F8083E1E8B7
:103D7000F0E08081877E8083808184608083808181
:103D80008C7F80838C9181608C93089581E008956D
:103D9000CF92DF92EF92FF920F931F93CF93DF9317
:103DA000FC01DB01CA01B901C12CD12C76011DE750
:103DB000C0E2C216D306E406F506C9F00C91033042
:103DC00021F0D3E8D00FD23080F41083DC91DC27CF
:103DD000D18332966F5F7F4F8F4F9F4FDFEFCD1AAA
:103DE000DD0AED0AFD0A1196E4CF0193F7CFDF91CA
:103DF000CF911F910F91FF90EF90DF90CF9008959A
:103E0000AF92BF92CF92DF92EF92FF920F931F93E8
:103E1000CF93DF93CDB7DEB72C970FB6F894DEBF04
:103E20000FBECDBF8C015B01FB018181882309F4AA
:103E300086C08EE7F8018083818383E0858786874B
:103E4000108A1786128A118A138A148A158A168A8A
:103E5000178A22E030E040E050E0B801C501D0D23E
:103E600081116EC021E030E040E050E0B8016E5FAB
:103E70007F4FCE0101968CDF9B01AC01BE016F5FCD
:103E80007F4FC501BDD281115BC0F5012081F801D2
:103E900083819481A581B68189879A87AB87BC8706
:103EA000211108C02B859A8589853C8539872A8709
:103EB0009B878C8724E030E040E050E0BE01675FE4
:103EC0007F4FCE01019664DF9B01AC01BE016F5FA5
:103ED0007F4FC50195D2811133C0C12CD12C760101
:103EE000F80183819481A581B681C816D906EA06B6
:103EF000FB06D8F4F801678170856C0D7D1D21E00B
:103F000030E040E050E0CE01019642DF9B01AC0181
:103F1000BE016F5F7F4FC50173D2811111C0FFEFEA
:103F2000CF1ADF0AEF0AFF0ADBCFB801635F7F4FCA
:103F300022E030E040E050E0C50162D201C080E004
:103F40002C960FB6F894DEBF0FBECDBFDF91CF9198
:103F50001F910F91FF90EF90DF90CF90BF90AF90A7
:103F600008952F923F924F925F926F927F928F921D
:103F70009F92AF92BF92CF92DF92EF92FF920F93F8
:103F80001F93CF93DF93CDB7DEB727970FB6F89483
:103F9000DEBF0FBECDBF7C016B011D8219821A826C
:103FA0001B821C82DB0111968C91882309F4AAC123
:103FB0008EE7F7018083818383E085878687108A77
:103FC0001786128A118A138A148A158A168A178A02
:103FD0003396FF83EE8385E0482E512C5701FDE098
:103FE000AF0EB11C47018FEF881A980A66246394BC
:103FF000712C170192E0290E311C8E010F5F1F4FAB
:1040000021E030E040E050E0BE016B5F7F4FC60131
:104010004CD2811178C189819A81AB81BC81019791
:10402000A105B10551F0D70150961C921E921F9721
:1040300052961C921E92519765C1F701878590890F
:1040400002970397C8F497898D81992329F0178ADD
:10405000F0E28F278D8310C08D3749F08E3739F10C
:10406000833051F4128A118A108A178605C0E1E064
:10407000D7015796EC93C1CFF7018785908982309D
:10408000910509F43FC02CF4009769F0019731F1D4
:10409000B4CF8430910509F4BEC00CF469C0059713
:1040A00009F4F5C0AACF8D818E3709F0A6CFD701CC
:1040B00052969C928E9251978C9353968D919D918E
:1040C0000D90BC91A02D0196A11DB11DF701838B10
:1040D000948BA58BB68B708A67868FCF8D818E3738
:1040E00009F00BC10188F289E02D8083F701138A62
:1040F000148A158A168A82E090E0908B8787328A2C
:10410000218A7BCFF70183899489A589B689892B78
:104110008A2B8B2B09F0F1C00188F289E02DCF01A9
:104120000196D70152969C938E9351978D818083EF
:1041300053968D919D910D90BC91A02D0196A11D3E
:10414000B11DF701838B948BA58BB68B0197A105CD
:10415000B10509F052CF83E090E0908B8787AE8164
:10416000BF81B28BA18B138A148A158A168A45CF18
:10417000F70183899489A589B6890497A105B105BA
:1041800008F0BBC00188F289E02DCF010196D7016C
:1041900052969C938E9351978D81808353968D91E7
:1041A0009D910D90BC91A02D0196A11DB11DF7010F
:1041B000838B948BA58BB68B0497A105B10509F071
:1041C0001CCFD6018C915381448135812681811188
:1041D00003C0C901DA0104C0852F942FA32FB22F89
:1041E000F70183839483A583B683138A148A158A7F
:1041F000168A892B8A2B8B2B49F084E090E0908BD8
:10420000878787819085928B818BF7CE508A4786EE
:10421000B28AA18AF2CEF7014389548965897689E9
:1042200083819481A581B681481759076A077B0766
:1042300008F063C00188F289E02DCF010196D70113
:1042400052969C938E9351978D81808353968D9136
:104250009D910D90BC91A02D0196A11DB11DF7015E
:10426000838B948BA58BB68B43815481658176813A
:1042700084179507A607B70709F0BFCE508A47866F
:10428000B28AA18A138A148A158A168AB6CEF701D1
:1042900083899489A589B6890297A105B10568F536
:1042A0002D81233051F50188F289E02DCF0101964F
:1042B000D70152969C938E935197208353968D915C
:1042C0009D910D90BC91A02D0196A11DB11DF701EE
:1042D000838B948BA58BB68B0297A105B10509F052
:1042E0008CCE86E090E0908B8787128A118A138AA1
:1042F000148A158A168A80E006C0F701128A118A8C
:10430000108A178681E027960FB6F894DEBF0FBE9D
:10431000CDBFDF91CF911F910F91FF90EF90DF9074
:10432000CF90BF90AF909F908F907F906F905F9055
:104330004F903F902F90089581E08093E606109271
:10434000E70686EE96E00895CF92DF92EF92FF9215
:104350000F931F93CF93DF938C017B016A01FC01C4
:104360008181811121C06CE070E081E090E00E94C9
:104370001E2DEC019093E9068093E8060097A1F0CA
:104380001A861B8681E0F8018183B601C7016BD4D0
:1043900099838883E091E806F091E9068081918114
:1043A000019621F4F801118281E001C080E0DF91E3
:1043B000CF911F910F91FF90EF90DF90CF900895D4
:1043C000CF93DF93FC0121812223B1F01182E09190
:1043D000E806F091E906808191813CD4EC0180915E
:1043E000E8069091E906009711F00E94D02D81E037
:1043F000219619F080E001C081E0DF91CF9108950E
:10440000FC018181882369F0E091E806F091E906DA
:10441000808191810E94F91421E0019619F020E039
:1044200001C021E0822F08950F931F93CF93DF9354
:104430001F921F92CDB7DEB78B011A821982DC0161
:1044400011968C91811102C081E028C0E091E806AC
:10445000F091E9068285882321F081E0FB018083C9
:104460001CC0DB011C92BF016E5F7F4F9E012F5F5E
:104470003F4F48E050E0808191810ED4019621F3B6
:1044800089819A81009749F091E0F8019083E09149
:10449000E806F091E9068287138680E00F900F907E
:1044A000DF91CF911F910F9108958F929F92AF92BC
:1044B000BF92CF92DF92EF92FF920F931F93CF9311
:1044C000DF935B0169017A01F80110821182128287
:1044D0001382FC018181811102C081E032C0C09150
:1044E000E806D091E9068A858823F1F090E0490139
:1044F0008217930708F44C016B8570E06E5F7F4F65
:104500006C0F7D1FA401C5010E945F2E8A8588194A
:104510008A878B85880D8B87A80CB91CA70196010B
:104520002819390941095109B501888199810E94E9
:104530003D15019691F2F801C082D182E282F382A8
:1045400080E0DF91CF911F910F91FF90EF90DF906E
:10455000CF90BF90AF909F908F900895CF93DF93AF
:10456000FB0120813181DC016D917C91DA01A85B36
:10457000BF4F672B19F42115310531F0E901C85BF4
:10458000DF4F5983488303C051834083FC0151832B
:1045900040831D921C92DF91CF910895FC01DB01B5
:1045A0008D919C91208131812115310519F400975D
:1045B00009F40895D901A85BBF4F8D919C91119783
:1045C00091838083892B19F4FB01118210821D9243
:1045D0001C92C90108952091F1063091F206809154
:1045E000F3069091F406892B19F481E0232B09F04E
:1045F00080E008952091ED063091EE068091EF065F
:104600009091F006892B19F481E0232B09F080E0CA
:104610000895CF93DF93C5E0D0E06AE470E081E0D5
:1046200090E00E941E2D009751F0AC0161EF76E002
:1046300083EF96E093DF219781F780E001C081E06E
:10464000DF91CF9108957F928F929F92AF92BF9208
:10465000CF92DF92EF92FF920F931F93CF93DF934E
:104660001F921F92CDB7DEB75C01BC018EE097E0D0
:1046700078DC782E811142C080911007823019F4C5
:104680001092F5063BC0C0901107D0901207E09041
:104690001307F0901407809015079090160761EFAC
:1046A00076E083EF96E07ADF8C01A601B4010E94E8
:1046B0005F2EF801E05CFF4FEE24D7FCE094FE2C67
:1046C000C082D182E282F3823496108211821282F9
:1046D0001382A8016DEE76E08FEE96E03FDF7BDF80
:1046E00081110CC002E010E09E012F5F3F4F40E0BF
:1046F00050E060E070E0C50112D0782E872D0F9059
:104700000F90DF91CF911F910F91FF90EF90DF906D
:10471000CF90BF90AF909F908F907F9008958F9291
:104720009F92AF92BF92CF92DF92EF92FF920F9340
:104730001F93CF93DF9300D0CDB7DEB76C014B0151
:1047400058017A014331510518F082E1E82EF12C2D
:10475000F901F182E08200E010E08091F506882303
:1047600079F1F2E0AF16B10459F11B82BE016D5F21
:104770007F4FC60159DE81113CC08B81811104C07D
:104780002ADF811106C0E7CFC6015DDF8823C1F3B0
:1047900030C0083C11051CF40F5F1F4FDECF39DF1E
:1047A000811127C002E010E09E012F5F3F4F40E0E3
:1047B00050E060E070E0C601B2DF882361F219C00A
:1047C000C701A0E0B0E08093F9069093FA06A093A9
:1047D000FB06B093FC06A092F806A701B4018091F5
:1047E000FD069091FE060E945F2EB60186EF96E0D0
:1047F00007DB0F900F900F90DF91CF911F910F91DA
:10480000FF90EF90DF90CF90BF90AF909F908F90F0
:104810000895CF93E0DE811108C061EF76E083EF69
:1048200096E0BCDE0E94D02DF5CFE4DE811108C0F9
:104830006DEE76E08FEE96E0B1DE0E94D02DF5CFE2
:1048400080911507909116070E94D02DC8E1EEE0E7
:10485000F7E0DF018C2F1D928A95E9F78091FD0624
:104860009091FE060E94D02DE6EFF6E0DF011D924A
:10487000CA95E9F71092EE061092ED061092F00636
:104880001092EF061092F2061092F1061092F406C2
:104890001092F3061092F506CF91089580E00895E6
:1048A00021E0FC0181819281892B09F420E0FB0148
:1048B000208380E008951092F50608950F931F93CA
:1048C000CF93DF93EC0109811A810115110529F0BD
:1048D000A0DFC80175DD1A821982DF91CF911F9187
:1048E0000F9108958F929F92AF92BF92CF92DF92D5
:1048F000EF92FF920F931F93CF93DF938C015B0195
:104900004A01C42FD92DEE24E394F12CEA14FB04C0
:104910008CF4FFEFEF1AFF0A8A819B81009741F028
:1049200060E973E00E946F2E892B11F41B821A82BA
:104930002296ECCF81E0F8018083FEDCEC01009749
:10494000A9F167DF80E490E00E94382D9093FE0685
:104950008093FD06892B41F190E4C92ED12CE12CE6
:10496000F12CC092FF06D0920007E0920107F0926E
:10497000020780E490E00E94382D90931607809300
:104980001507892B89F0C0921707D0921807E0927B
:104990001907F0921A073DDE811106C0A401B50186
:1049A000CE01D2DC882311F0C0E0D0E0F801D28340
:1049B000C183CD2B19F080E090E002C088E693E03F
:1049C000DF91CF911F910F91FF90EF90DF90CF90EB
:1049D000BF90AF909F908F900895FC0180810895C3
:1049E0008AEE96E0089508956F927F928F929F923B
:1049F000AF92BF92CF92DF92EF92FF920F931F93ED
:104A0000CF93DF931F921F92CDB7DEB77C015B017E
:104A10008A014901FC01C180D280ECDD8823C9F004
:104A20001982BE016F5F7F4FC601FEDC782E8111B7
:104A300089C08981882339F0C60105DE811107C04C
:104A4000D9DD882331F0F801118210827BC0782EE5
:104A500079C0F701C180D2808091EF069091F00675
:104A6000009731F4C601EFDD782E8823A9F36AC0E0
:104A70007C01F4E4EF0EF11CF70140815181628169
:104A800073813C01F0E46F0E711CF30120813181D0
:104A9000241B350BF801A216B3061CF031832083CA
:104AA00002C0B182A082BC01640F751FF801408171
:104AB0005181C4010E945F2EF80180819181AA2753
:104AC00097FDA095BA2FF7014081518162817381D2
:104AD000840F951FA61FB71F80839183A283B38382
:104AE000F301408151816281738184179507A60784
:104AF000B70739F570DD182FF30110821182128289
:104B00001382F70110821182128213826DEE76E019
:104B10008FEE96E043DDAC0161EF76E083EF96E047
:104B20001DDD112371F002E010E09E012F5F3F4F69
:104B300040E050E060E070E0C601F1DD782E8111C8
:104B400001C0712C872D0F900F90DF91CF911F9195
:104B50000F91FF90EF90DF90CF90BF90AF909F901C
:104B60008F907F906F9008955F926F927F928F9257
:104B70009F92AF92BF92CF92DF92EF92FF920F93EC
:104B80001F93CF93DF931F921F92CDB7DEB76B01B8
:104B90003A015901FC01818092801A821982E12C2C
:104BA000F12C55245394EC14FD04B4F401E010E00E
:104BB0009E012F5F3F4FA6014E195F09B3016E0D95
:104BC0007F1DC401ACDD81110BC089819A81E80E83
:104BD000F91E5092F506E7CF80E0F501D182C08240
:104BE0000F900F90DF91CF911F910F91FF90EF9059
:104BF000DF90CF90BF90AF909F908F907F906F90FD
:104C00005F9008950895CF93DF93EC0189819A8195
:104C1000D7DB1A821982DF91CF9108950F931F93EA
:104C2000CF93DF93EA018901F894E0916204F09157
:104C300063040280F381E02D82E694E01995789474
:104C4000F801D183C08380E090E0DF91CF911F9184
:104C50000F91089568EE73E080E090E00E9477176E
:104C600080E090E008950E949C1726E040E052EC1E
:104C700061E070E082E694E00E94931982E694E09D
:104C80000E94C018892B29F082E694E00E94D9186E
:104C9000F5CF80E090E00895CF92DF92EF92FF92FF
:104CA0000F931F93CF93DF931F921F92CDB7DEB761
:104CB0007A016901F9011182108282E694E0698328
:104CC0007A830E94C01869817A81892BC9F08B018F
:104CD000F601808191818E159F0590F482E694E023
:104CE0000E94D9188F3FFFEF9F0791F3F80181933E
:104CF0008F01F60180819181019691838083E8CFB5
:104D000080E090E00F900F90DF91CF911F910F9175
:104D1000FF90EF90DF90CF900895CF92DF92EF92C7
:104D2000FF920F931F93CF93DF936C018B017A0156
:104D3000EC01C95DD84F888187FF04C0FB01118257
:104D4000108223C02CE02C9DC0012D9D900D1124BC
:104D50002881AC01420F511D27FD5A95209126074D
:104D600030E0421753078CF42881AC01420F511DEB
:104D700027FD5A959A01FA01EE0FFF1FE20FF31F6C
:104D8000E55DF84F208126FD19C088818F5F8883FB
:104D90008CE08C9D90018D9D300D11248881A9019E
:104DA000480F511D87FD5A958091260790E04817BE
:104DB0005907B4F488818C303CF112C02881820FED
:104DC000911D27FD9A95FC01EE0FFF1FE80FF91FBB
:104DD000E55DF84F808160E08F730E948B18D5CF1E
:104DE000F80180819181049680349C4918F480E414
:104DF0009CE904C0F801808191810496F7019183B8
:104E000080838FEF888341C0F80180819181488140
:104E1000B901640F711D47FD7A95AB01FB01EE0FDF
:104E2000FF1FE40FF51FE55DF84F41815281840FAC
:104E3000951FF701918380838881A901480F511D37
:104E400087FD5A95FA01EE0FFF1FE40FF51FE55D90
:104E5000F84F808186FF19C08881280F311D87FD9A
:104E60003A95F901EE0FFF1FE20FF31FE55DF84FD2
:104E7000808161E08F73DF91CF911F910F91FF903F
:104E8000EF90DF90CF900C948B18DF91CF911F9112
:104E90000F91FF90EF90DF90CF9008951F920F92A7
:104EA0000FB60F9211240BB60F922F933F934F938F
:104EB0005F936F937F938F939F93AF93BF93EF9382
:104EC000FF9348E850E064E870E081E090E025DF7F
:104ED000FF91EF91BF91AF919F918F917F916F91D2
:104EE0005F914F913F912F910F900BBE0F900FBE8E
:104EF0000F901F9018951F920F920FB60F921124CA
:104F00000BB60F922F933F934F935F936F937F93C3
:104F10008F939F93AF93BF93EF93FF9348E950E034
:104F200064E970E082E090E0F8DEFF91EF91BF91DC
:104F3000AF919F918F917F916F915F914F913F9131
:104F40002F910F900BBE0F900FBE0F901F901895D2
:104F50001F920F920FB60F9211240BB60F922F9340
:104F60003F934F935F936F937F938F939F93AF93F1
:104F7000BF93EF93FF9348EA50E064EA70E083E068
:104F800090E0CBDEFF91EF91BF91AF919F918F9118
:104F90007F916F915F914F913F912F910F900BBE39
:104FA0000F900FBE0F901F9018951F920F920FB683
:104FB0000F9211240BB60F922F933F934F935F9351
:104FC0006F937F938F939F93AF93BF93EF93FF93D1
:104FD00048E251E064E271E080E090E09EDEFF9103
:104FE000EF91BF91AF919F918F917F916F915F9161
:104FF0004F913F912F910F900BBE0F900FBE0F90CE
:105000001F901895209126072033A0F431E0320F2D
:1050100030932607FC012083822F90E0FC01EE0FE5
:10502000FF1FE80FF91FE55DF84F88EB9BE09283C7
:10503000818308952FEFFC0120830895DF92EF9282
:10504000FF920F931F93CF93DF93EC01D62E7A013B
:1050500089018881803308F067C061E08D2D0E944E
:1050600052188881A82FB0E0FD01EE0FFF1FEA0F54
:10507000FB1FE55DF84F2D2D2F739081907C922BB7
:10508000908360E272E06E197F0977FF02C06D5F66
:105090007F4F7595679575956795698340E659E0EB
:1050A000401B510B57FF02C04D5F5F4F5595479511
:1050B000559547954A836CE054D49CE0899FB00194
:1050C000112420E030E0A901460F571FFA01EE0F2E
:1050D000FF1FE40FF51FE55DF84F908196FD18C0A6
:1050E0002F5F3F4F2C30310571F790E081309105F3
:1050F00021F51092800082E080938100109285005B
:1051000010928400B19A80916F00826080936F004A
:10511000888190E0FC01EE0FFF1FE80FF91FE55DAD
:10512000F84F8081806480838881DF91CF911F91C7
:105130000F91FF90EF90DF9008958230910569F410
:105140001092900082E0809391001092950010924E
:10515000940088BB80937100DBCF8330910569F4A4
:105160001092A00082E08093A1001092A5001092FE
:10517000A40089BB80937200CBCF892B49F6109293
:10518000200182E0809321011092250110922401D8
:105190008ABB80937300BCCF20E639E040E252E046
:1051A0004DCFFC018081803370F5918128E830E09B
:1051B000291B310997FD3395220F331F220F331F0F
:1051C000621773077CF0928128E532E0291B3109D0
:1051D00097FD3395220F331F220F331F621773077A
:1051E0000CF49B0122503109220F331F4FB7F89462
:1051F00090E0FC01EE0FFF1FE80FF91FE55DF84F8F
:10520000328321834FBF08954F925F926F927F92B6
:10521000AF92BF92CF92DF92EF92FF920F931F93C4
:10522000CF93DF93EC01603282E078070CF040C04E
:1052300077FD06C0653B71052CF064EB70E002C0A1
:1052400060E070E0898128E830E0281B310987FDA3
:105250003395220F331F220F331F5901CC24B7FC83
:10526000C094DC2C882777FD8095982F2A8148E50B
:1052700052E0421B510927FD5395440F551F440F1F
:10528000551F2A01662457FC6094762C7F926F92FA
:105290005F924F9214EBE12EF12C00E010E020E041
:1052A00030E0A9010E94151E0F900F900F900F90F3
:1052B000CE01DF91CF911F910F91FF90EF90DF9082
:1052C000CF90BF90AF907F906F905F904F9069CFDD
:1052D0002091BB0781E0820F8093BB07222349F016
:1052E00081E090E09093BD078093BC072093BB07BB
:1052F000089578940E945F01F8948091BB078150D3
:105300008093BB070C94E914FF920F931F93CF93E4
:10531000DF931F921F92CDB7DEB781E08A830E9490
:105320009C170E945C1EE0911503F09116031182F8
:10533000108260E070E080E090E00E94F2140E9431
:10534000790278940091150310911603C801829692
:105350000E94F11481E090E00E94ED141982AE01E8
:105360004F5F5F4F61E070E0F801828193810E949E
:1053700097148981882319F081E0F80186A30E949F
:10538000F814F8940E94A71EF80180819181892B5E
:1053900019F481E096A1911180E08A837894789441
:1053A000FF24F3948A81882319F11982AE014F5F9B
:1053B0005F4F61E070E0F801828193810E94D31415
:1053C0008981882311F0F801F6A2F801808191818A
:1053D000892B19F481E096A1911180E08A838A815A
:1053E000882319F00E94C61E01C080E08A83DACFAC
:1053F00081E090E00E94EF140E942D03F89480E079
:1054000090E00F900F90DF91CF911F910F91FF903F
:1054100008955058BB27AA270ED070C161D130F033
:1054200066D120F031F49F3F11F41EF456C10EF402
:10543000E095E7FB4CC1E92F72D180F3BA17620700
:1054400073078407950718F071F49EF58AC10EF46E
:10545000E0950B2EBA2FA02D0B01B90190010C0184
:10546000CA01A0011124FF27591B99F0593F50F49C
:10547000503E68F11A16F040A22F232F342F4427F4
:10548000585FF3CF469537952795A795F0405395EC
:10549000C9F77EF41F16BA0B620B730B840BBAF0BC
:1054A0009150A1F0FF0FBB1F661F771F881FC2F727
:1054B0000EC0BA0F621F731F841F48F4879577953B
:1054C0006795B795F7959E3F08F0B3CF9395880FF2
:1054D00008F09927EE0F979587950895D4D008F492
:1054E00081E008950CD00AC102D140F0F9D030F02B
:1054F00021F45F3F19F0EBC0511134C1EEC00FD160
:1055000098F39923C9F35523B1F3951B550BBB278A
:10551000AA2762177307840738F09F5F5F4F220F37
:10552000331F441FAA1FA9F333D00E2E3AF0E0E830
:1055300030D091505040E695001CCAF729D0FE2F7C
:1055400027D0660F771F881FBB1F2617370748070E
:10555000AB07B0E809F0BB0B802DBF01FF279358C4
:105560005F4F2AF09E3F510568F0B1C0FBC05F3F1E
:10557000ECF3983EDCF3869577956795B795F795AC
:105580009F5FC9F7880F911D9695879597F90895A4
:10559000E1E0660F771F881FBB1F62177307840740
:1055A000BA0720F0621B730B840BBA0BEE1F88F74F
:1055B000E0950895BCD088F09F5790F0B92F9927B7
:1055C000B751A0F0D1F0660F771F881F991F1AF00E
:1055D000BA95C9F712C0B13081F0C3D0B1E00895D7
:1055E000C0C0672F782F8827B85F39F0B93FCCF358
:1055F000869577956795B395D9F73EF49095809504
:10560000709561957F4F8F4F9F4F0895E89409C023
:1056100097FB3EF490958095709561957F4F8F4FE5
:105620009F4F9923A9F0F92F96E9BB279395F695FB
:10563000879577956795B795F111F8CFFAF4BB0F79
:1056400011F460FF1BC06F5F7F4F8F4F9F4F16C0DD
:10565000882311F096E911C0772321F09EE8872F67
:10566000762F05C0662371F096E8862F70E060E023
:105670002AF09A95660F771F881FDAF7880F96959C
:10568000879597F90895990F0008550FAA0BE0E840
:10569000FEEF16161706E807F907C0F012161306F4
:1056A000E407F50798F0621B730B840B950B39F434
:1056B0000A2661F0232B242B252B21F408950A269A
:1056C00009F4A140A6958FEF811D811D089597F9DA
:1056D0009F6780E870E060E008959FEF80EC089598
:1056E00000240A94161617061806090608950024C1
:1056F0000A9412161306140605060895092E03943B
:10570000000C11F4882352F0BB0F40F4BF2B11F4AE
:1057100060FF04C06F5F7F4F8F4F9F4F089557FD0D
:105720009058440F551F59F05F3F71F04795880F0F
:1057300097FB991F61F09F3F79F0879508951216A6
:1057400013061406551FF2CF4695F1DF08C0161652
:1057500017061806991FF1CF869571056105089403
:105760000895E894BB2766277727CB0197F908951A
:105770008ADF08F48FEF08950BD0C0CFB1DF28F097
:10578000B6DF18F0952309F0A2CFA7CF1124EACFF6
:10579000C6DFA0F3959FD1F3950F50E0551F629F90
:1057A000F001729FBB27F00DB11D639FAA27F00D7A
:1057B000B11DAA1F649F6627B00DA11D661F829FA1
:1057C0002227B00DA11D621F739FB00DA11D621F86
:1057D000839FA00D611D221F749F3327A00D611DA3
:1057E000231F849F600D211D822F762F6A2F112485
:1057F0009F5750408AF0E1F088234AF0EE0FFF1FD8
:10580000BB1F661F771F881F91505040A9F79E3F0E
:10581000510570F05CCFA6CF5F3FECF3983EDCF310
:10582000869577956795B795F795E7959F5FC1F74B
:10583000FE2B880F911D9695879597F908959F9354
:1058400005D00F9007FCEE5F28C047CF70DFE8F36C
:10585000E894E0E0BB279F57F0F02AED3FE049ECE9
:1058600006C0EE0FBB0F661F771F881F28F0B23AE5
:1058700062077307840728F0B25A620B730B840B1C
:10588000E3959A9572F7803830F49A95BB0F661FAE
:10589000771F881FD2F7904813C0EF93E0FF06C030
:1058A000A2EA2AED3FE049EC5FEBC5DD27DF0F9070
:1058B000039401FC9058E8E2F1E00EC09F3F31F004
:1058C000915020F4879577956795B795880F911D2E
:1058D0009695879597F908959F938F937F936F93EC
:1058E000FF93EF939B01AC0147DFEF91FF9105D050
:1058F0002F913F914F915F913FCFDF93CF931F93B4
:105900000F93FF92EF92DF927B018C01689405C0A8
:10591000DA2EEF013DDFFE01E894A5912591359146
:1059200045915591AEF3EF0186DDFE019701A80187
:10593000DA9479F7DF90EF90FF900F911F91CF915C
:10594000DF910895DB018F939F935BD0BF91AF915F
:10595000A29F800D911DA39F900DB29F900D1124C9
:105960000895991B79E004C0991F961708F0961BBB
:10597000881F7A95C9F780950895A1E21A2EAA1B6F
:10598000BB1BFD010DC0AA1FBB1FEE1FFF1FA217EF
:10599000B307E407F50720F0A21BB30BE40BF50BEC
:1059A000661F771F881F991F1A9469F76095709575
:1059B000809590959B01AC01BD01CF010895052E06
:1059C00097FB16F400940FD057FD05D0D6DF07FCE7
:1059D00002D046F408C050954095309521953F4F30
:1059E0004F4F5F4F089590958095709561957F4FCB
:1059F0008F4F9F4F0895EE0FFF1F0590F491E02DFC
:105A000019940DD0A59F900DB49F900DA49F800D6B
:105A1000911D112408950790F691E02D1994A29FED
:105A2000B001B39FC001A39F700D811D1124911D72
:105A3000B29F700D811D1124911D08950F931F9326
:105A4000CF93DF93869F8001879F100D969F100D47
:105A50001124C8010DD0EC01009721F0A80160E0ED
:105A600070E036D1CE01DF91CF911F910F91089553
:105A7000CF93DF938230910510F482E090E0E091C3
:105A8000F107F091F20720E030E0A0E0B0E03097BD
:105A900039F14081518148175907B8F04817590723
:105AA00071F482819381109729F013969C938E93C1
:105AB00012972CC09093F2078093F10727C021150D
:105AC000310531F04217530718F0A901DB0101C07D
:105AD000EF019A01BD01DF010280F381E02DD7CFF4
